:100000000C948F020C94B7020C94B7020C94B702B4
:100010000C94B7020C94B7020C94B7020C94B7027C
:100020000C94B7020C94B7020C94B7020C9493068C
:100030000C94B7020C94B7020C94B7020C94B7025C
:100040000C9449060C94B7020C9417060C94F10515
:100050000C94B7020C94B7020C94B7020C94B7023C
:100060000C94B7020C94B7020000000800020100D3
:100070000003040700000000000000000E182D0D12
:100080000000000000000000000000000000000070
:100090001038383838383838381000000000000080
:1000A0000000000000000000000000000000000050
:1000B0000000000000000000000000000000000040
:1000C000000000000000000000000040E0E04000F0
:1000D00000000000000002060E0E0E0E0E0E0602BC
:1000E0000000000010383838383838383810000030
:1000F000000080C0E0E0E0E0E0E0C080000000FC44
:10010000FAF60E0E0E0E0E0EF6FAFC0000EFC78386
:1001100000000000000083C7EF00007FBFDFE0E0C9
:10012000E0E0E0E0DFBF7F00000000000000000032
:100130000000F0F8FC0000000000000000000000DB
:1001400083C7EF00000000000000000000001F3F18
:100150007F00000002060E0E0E0E0E0EF6FAFC00D8
:1001600000E0D0B83838383838383B170F00007FF7
:10017000BFDFE0E0E0E0E0E0C08000000000020659
:100180000E0E0E0E0E0EF6FAFC0000001038383877
:1001900038383838BBD7EF00000080C0E0E0E0E03E
:1001A000E0E0DFBF7F0000FCF8F00000000000008E
:1001B000F0F8FC00000F173B383838383838BBD718
:1001C000EF00000000000000000000001F3F7F0063
:1001D00000FCFAF60E0E0E0E0E0E06020000000FC8
:1001E000173B383838383838B8D0E000000080C0C5
:1001F000E0E0E0E0E0E0DFBF7F0000FCFAF60E0E9A
:100200000E0E0E0E0602000000EFD7BB383838384D
:100210003838B8D0E000007FBFDFE0E0E0E0E0E0A9
:10022000DFBF7F00000002060E0E0E0E0E0EF6FA65
:10023000FC000000000000000000000083C7EF0089
:10024000000000000000000000001F3F7F0000FCD5
:10025000FAF60E0E0E0E0E0EF6FAFC0000EFD7BBED
:10026000383838383838BBD7EF00007FBFDFE0E0E0
:10027000E0E0E0E0DFBF7F0000FCFAF60E0E0E0EBD
:100280000E0EF6FAFC00000F173B383838383838B5
:10029000BBD7EF00000080C0E0E0E0E0E0E0DFBFBF
:1002A0007F000608205F0000000000000000002F13
:1002B000000000000700070000147F147F140024D2
:1002C0002A7F2A12002313086462003649552250FF
:1002D00000000503000000001C2241000000412234
:1002E0001C000014083E08140008083E080800001E
:1002F00000A0600000080808080800006060000016
:10030000002010080402003E5149453E0000427F93
:100310004000004261514946002141454B310018DF
:1003200014127F10002745454539003C4A494930A1
:10033000000171090503003649494936000649495B
:10034000291E000036360000000056360000000866
:100350001422410000141414141400004122140843
:1003600000020151090600324959513E007C121128
:10037000127C007F49494936003E41414122007FBD
:100380004141221C007F49494941007F0909090177
:10039000003E4149497A007F0808087F0000417FFC
:1003A0004100002040413F01007F08142241007FAE
:1003B00040404040007F020C027F007F0408107F15
:1003C000003E4141413E007F09090906003E41517E
:1003D000215E007F0919294600464949493100013B
:1003E000017F0101003F4040403F001F2040201F8F
:1003F000003F4038403F0063140814630007087052
:10040000080700615149454300007F414100AA555A
:10041000AA55AA55000041417F00000402010204D0
:1004200000404040404000000305000000205454BC
:100430005478007F4844443800384444442000380D
:100440004444487F00385454541800087E0901027F
:100450000018A4A4A47C007F080404780000447D54
:100460004000004080847D00007F10284400000090
:10047000417F4000007C04180478007C0804047864
:1004800000384444443800FC242424180018242450
:1004900018FC007C0804040800485454542000044C
:1004A0003F444020003C4040207C001C2040201C59
:1004B000003C4030403C004428102844001CA0A0D0
:1004C000A07C004464544C440000107C8200000076
:1004D00000FF00000000827C1000000006090906F1
:1004E00000000000240027002A0001020408102058
:1004F00040800102040810200102040810200000BE
:100500000000250028002B00040404040404040453
:10051000020202020202030303030303FF08112481
:100520001FBECFEFD8E0DEBFCDBF22E0AAE6B1E02C
:1005300001C01D92AF33B207E1F711E0A0E0B1E0D6
:10054000ECEBFCE102C005900D92AA36B107D9F799
:1005500012E0CFE8D2E004C02197FE010E94310DE5
:10056000CE38D107C9F70E94120A0C945C0E0C9485
:10057000000090E0FC01E651FB4F2491885F9A4F08
:10058000FC018491882399F090E0880F991FFC0169
:10059000E052FB4FA591B491FC01E250FB4F8591D5
:1005A00094918FB7F894EC91E22BEC938FBF089560
:1005B00090912E02E0912802F091290220819095DD
:1005C00092239083E0912402F091250290912C02D5
:1005D0002081611130C090959223908328E0E091B2
:1005E0002202F091230290912B02308187FF25C0D7
:1005F000932B9083880F90912A02E0912002F09132
:1006000021023081909593239083000090912A02DB
:10061000E0912002F09121023081932B90832150B0
:10062000F1F680912E02E0912802F091290290814A
:10063000892B80830895922BD0CF90959323D9CF87
:10064000A0E2B2E052969C938E935197FC012491C4
:1006500053962C9353973196E4915496EC93549778
:10066000FC013296E4915596EC9355970396FC0164
:10067000849156968C93569757961C920895AF92F4
:10068000BF92CF92DF92EF92FF920F931F93CF937F
:10069000DF936C017B018B01040F151FEB015E01E1
:1006A000AE18BF08C017D10759F06991D601ED9176
:1006B000FC910190F081E02DC6010995892B79F715
:1006C000C501DF91CF911F910F91FF90EF90DF90C7
:1006D000CF90BF90AF900895FC01538D448D252F8E
:1006E00030E0842F90E0821B930B541710F0CF96CC
:1006F000089501970895FC01918D828D981761F0FE
:10070000A28DAE0FBF2FB11D5D968C91928D9F5F14
:100710009F73928F90E008958FEF9FEF0895FC01F3
:10072000918D828D981731F0828DE80FF11D858DA6
:1007300090E008958FEF9FEF0895FC01918D228D39
:10074000892F90E0805C9F4F821B91098F739927BE
:10075000089585E791E00E949D0321E0892B09F42B
:1007600020E0822F089580E090E0892B29F00E94FC
:10077000A90381110C9400000895FC01A48DA80F19
:10078000B92FB11DA35ABF4F2C91848D90E00196D3
:100790008F739927848FA689B7892C93A089B189F3
:1007A0008C91837080648C93938D848D981306C094
:1007B0000288F389E02D80818F7D80830895EF92F8
:1007C000FF920F931F93CF93DF93EC0181E0888F0B
:1007D0009B8D8C8D98131AC0E889F989808185FFDB
:1007E00015C09FB7F894EE89FF896083E889F9897D
:1007F00080818370806480839FBF81E090E0DF917F
:10080000CF911F910F91FF90EF900895F62E0B8DD1
:1008100010E00F5F1F4F0F731127E02E8C8D8E118C
:100820000CC00FB607FCFACFE889F989808185FFF3
:10083000F5CFCE010E94BD03F1CFEB8DEC0FFD2F64
:10084000F11DE35AFF4FF0829FB7F8940B8FEA89AE
:10085000FB8980818062CFCFCF93DF93EC01888DBD
:100860008823B9F0AA89BB89E889F9898C9185FD2B
:1008700003C0808186FD0DC00FB607FCF7CF8C91B9
:1008800085FFF2CF808185FFEDCFCE010E94BD03B1
:10089000E9CFDF91CF91089590E0FC01E859FF4F37
:1008A0002491FC01E651FB4F3491FC01E85FFA4FC3
:1008B000E491EE23C9F0222339F0233001F1A8F4AA
:1008C000213019F1223029F1F0E0EE0FFF1FE25044
:1008D000FB4FA591B4918FB7F894EC91611126C0AC
:1008E00030953E233C938FBF08952730A9F02830E0
:1008F000C9F0243049F7809180008F7D03C080913A
:1009000080008F7780938000DFCF84B58F7784BDA0
:10091000DBCF84B58F7DFBCF8091B0008F77809344
:10092000B000D2CF8091B0008F7DF9CF3E2BDACFCF
:100930003FB7F89480916F0190917001A09171017F
:10094000B091720126B5A89B05C02F3F19F0019602
:10095000A11DB11D3FBFBA2FA92F982F8827BC0119
:10096000CD01620F711D811D911D42E0660F771F41
:10097000881F991F4A95D1F708958F929F92AF9241
:10098000BF92CF92DF92EF92FF924B015C010E94E7
:1009900098046B017C010E9498046C197D098E09F2
:1009A0009F09683E734081059105A8F321E0821AF2
:1009B0009108A108B10888EEC80E83E0D81EE11C9A
:1009C000F11C81149104A104B10429F7FF90EF9068
:1009D000DF90CF90BF90AF909F908F900895FC01D3
:1009E00001900020E9F73197AF01481B590BBC017A
:1009F00085E791E00C943F032F923F924F925F92D4
:100A00006F927F928F929F92AF92BF92CF92DF921E
:100A1000EF92FF920F931F93CF93DF9300D01F921B
:100A2000CDB7DEB7209138022111C5C0FC0101907D
:100A30000020E9F731978F01081B190B4091330211
:100A4000409F9001419F300D112444E550E0421B2E
:100A5000530B5B834A8357FF04C04F5F5F4F5B8339
:100A60004A832A813B81359527953B832A8337FF2B
:100A700002C01B821A827B011C0183E0F594E7947B
:100A80008A95E1F7D12CC12CC016D1060CF093C089
:100A90008091380281118BC08091330290E0C89E12
:100AA0009001C99E300DD89E300D11244A815B8182
:100AB000240F351F820F931F853591050CF077C0E9
:100AC000809134028695869586958E0D9F2D911D79
:100AD00007970CF06CC0F101EC0DFD1D4080B12CAE
:100AE000A12C522F50685983512C80913402869545
:100AF0008695869560E08A151B0409F00CF450C0B9
:100B00008A2D8E0D80640E94D80260E089810E9447
:100B1000D80280913402869586958695909133020D
:100B2000899FC001112420913502A201421B510965
:100B3000849F3001859F700C949F700C1124912C20
:100B4000812C54E0650E711C2091330230E0821636
:100B5000930614F5A29EC001A39E900DB29E900D27
:100B60001124F301E80DF91D8E0F9F1FE091310252
:100B7000F0913202E80FF91F80913702811108C00D
:100B8000849161E00E94D8028FEF881A980ADCCF26
:100B9000849161E08095F6CF2FEFA21AB20AA5CF1B
:100BA00080E40E94D80260E080E80E94D8023FEF13
:100BB000C31AD30A69CF0F900F900F90DF91CF9196
:100BC0001F910F91FF90EF90DF90CF90BF90AF906B
:100BD0009F908F907F906F905F904F903F902F905D
:100BE00008951F920F920FB60F9211242F933F93E7
:100BF0004F935F936F937F938F939F93AF93BF9325
:100C0000EF93FF9385E791E00E94BD03FF91EF9181
:100C1000BF91AF919F918F917F916F915F914F9114
:100C20003F912F910F900FBE0F901F9018951F921C
:100C30000F920FB60F9211242F938F939F93EF93E0
:100C4000FF93E0918501F09186018081E0918B0115
:100C5000F0918C0182FD1BC0908180918E018F5F8D
:100C60008F7320918F01821741F0E0918E01F0E0A7
:100C7000EB58FE4F958F80938E01FF91EF919F91DE
:100C80008F912F910F900FBE0F901F90189580811C
:100C9000F4CF1F920F920FB60F9211242F933F9310
:100CA0008F939F93AF93BF9380916B0190916C0151
:100CB000A0916D01B0916E0130916A0123E0230F84
:100CC0002D3758F50196A11DB11D20936A0180931F
:100CD0006B0190936C01A0936D01B0936E018091B4
:100CE0006F0190917001A0917101B0917201019614
:100CF000A11DB11D80936F0190937001A0937101AC
:100D0000B0937201BF91AF919F918F913F912F91BD
:100D10000F900FBE0F901F90189526E8230F029694
:100D2000A11DB11DD2CF1F920F920FB60F921124A9
:100D30002F923F924F925F926F927F928F929F92EB
:100D4000AF92BF92CF92DF92EF92FF920F931F93D9
:100D50002F933F934F935F936F937F938F939F93C3
:100D6000AF93BF93EF93FF93CF93DF9300D000D067
:100D7000CDB7DEB7F89420911202309113023A8376
:100D8000298330E020E050E040E0A981BA818C91D5
:100D90008417150629F124F11196ED91FC91E20FCB
:100DA000F31F80818E3008F08E50877080648093AE
:100DB0007C0080917A00806480937A0080917A0030
:100DC00086FDFCCF90917800809179008927982743
:100DD0008927918780874F5F5F4F245C3F4FD5CF36
:100DE000312C212C10E000E050E6852E5AEE952E95
:100DF000A12CB12CE981FA8180818017110609F0BC
:100E00000CF4D1C121813281220D331D3C832B830F
:100E1000D901D0964D905D906D907C90D397F9015B
:100E2000808D918DA28DB38D480E591E6A1E7B1E3A
:100E300040AA51AA62AA73AA84899589A689B7890A
:100E40007201E81AF90A868597850C979787868735
:100E50008685978597FDBDC086859785873F994094
:100E60000CF0BAC0D9011E968D919C91EB81FC814A
:100E70009787868780859185C0ACD1AC8C159D0500
:100E8000CCF48285938565E070E00E94DC0CCB0198
:100E9000880F991F680F791F6E157F055CF42085F8
:100EA000318586A997A92817390724F4808591856B
:100EB00097AB86ABAB81BC8118968D919C911997AD
:100EC000C816D9069CF418962D913C911997D49682
:100ED0008D919C91D5978217930744F418968D9124
:100EE0009C911997D5969C938E93D497BBEFEB1654
:100EF000F1040CF4A7C0EB81FC8180859185C816B4
:100F0000D9060CF09FC0848581119CC08285938591
:100F100065E070E00E94DC0CCB01880F991F680F20
:100F2000791F6E157F050CF08DC021E02487848920
:100F30009589A689B789F201E81BF90BAB81BC81C1
:100F40001B96FC93EE931A97FD01448A558A668A94
:100F5000778A83AD882371F013AE7C96CD01C0965D
:100F6000AB81BC811A962D913C91219331938E17C0
:100F70009F07B1F7EB81FC8182AD882381F112AE2E
:100F800021E023AFAB81BC8112968D919C91139788
:100F900097FD04C01C966C910E944C04EB81FC816F
:100FA000E480F580F7FCD5C0868597856AE070E01F
:100FB0000E94DC0C7C836B838E2D0E94B9022B81F6
:100FC0003C81232B09F095C060E08E2D0E944C04DB
:100FD000C0C090E080E04ACF86EF99E047CFEB8138
:100FE000FC817C964B815C81425D5F4F30E020E06C
:100FF0008281938181939193280F391F4E175F0748
:10100000B9F7AB81BC811A968D919C911B979F96E5
:101010009C938E939E97820F931F6AE070E00E94CC
:10102000C80C9B0150E040E0C501B4010E94120DC4
:10103000EB81FC813783268321E0258786EF99E0C9
:1010400097878687AB81BC8118968D919C91199763
:101050008C159D053CF51C968C911C97882311F1ED
:101060001C961C921C97D6964D915C91D797D4965E
:101070002D913C91D597241B350B53963C932E9381
:10108000529752968D919C9197FD019695958795D3
:10109000840F951FEB81FC8191AF80AF95AB84AB42
:1010A00097AB86ABF5ECEF16F9E0FF060CF46ACFD0
:1010B000AB81BC8150968D919C915197D9969C9310
:1010C0008E93D897E0E0F2E0D596FC93EE93D49718
:1010D000D796FC93EE93D69754964D925D926D926F
:1010E0007C925797E1E0DA96EC93DA97DB961C92C4
:1010F00049CF8B819C818F3F910511F461E065CFD1
:10110000F701FF27E859FF4FE491E33071F150F404
:10111000E130D1F0E23019F1AB81BC81A038B105EA
:101120006CF752CFE73069F1E830A1F1E430A1F774
:10113000809180008062809380002B813C8130937D
:101140008B0020938A0005C084B5806884BD9B8194
:1011500097BD0F5F1F4FBCE32B0E311C4BCE84B5E8
:10116000806284BDAB81A8BDF4CF8091800080688F
:1011700080938000EB81FC81F0938900E0938800EC
:10118000E8CF8091B00080688093B0003B813093BD
:10119000B300DFCF8091B00080628093B0008B817C
:1011A0008093B400D6CF81E0E981FA818783789477
:1011B0000F900F900F900F90DF91CF91FF91EF91D3
:1011C000BF91AF919F918F917F916F915F914F915F
:1011D0003F912F911F910F91FF90EF90DF90CF9053
:1011E000BF90AF909F908F907F906F905F904F9047
:1011F0003F902F900F900FBE0F901F901895109258
:1012000078011092770188EE93E0A0E0B0E080933F
:10121000790190937A01A0937B01B0937C018AE0DD
:1012200091E0909376018093750185EC90E0909326
:1012300082018093810184EC90E0909384018093FB
:10124000830180EC90E0909386018093850181EC8E
:1012500090E0909388018093870182EC90E09093D6
:101260008A018093890186EC90E090938C018093B1
:101270008B0110928E0110928F01109290011092AA
:101280009101E0E1F5E0E491F0E0EE0FFF1FE250A4
:10129000FB4F859194919093210280932002E2EF7D
:1012A000F4E0E491E0932A02E1E1F5E0E491F0E07A
:1012B000EE0FFF1FE250FB4F859194919093230214
:1012C00080932202E3EFF4E0E491E0932B02E2E169
:1012D000F5E0E491F0E0EE0FFF1FE250FB4F859147
:1012E00094919093250280932402E4EFF4E0E4913A
:1012F000E0932C02E3E1F5E0E491F0E0EE0FFF1F54
:10130000E250FB4F8591949190932702809326029F
:10131000E5EFF4E0E491E0932D02E4E1F5E0E491FF
:10132000F0E0EE0FFF1FE250FB4F859194919093F8
:10133000290280932802E6EFF4E0E491E0932E0284
:1013400088E00E94B90289E00E94B9028AE00E9406
:10135000B9028BE00E94B9028CE00E94B90288E0D9
:1013600080932F028BE08093300210921D02109226
:101370001C0282E090E090931F0280931E0284E1A1
:1013800092E0909313028093120281E08093140202
:101390008CE390E00E94370DFC018EE090E0918399
:1013A00080838FEF9FEF938382839583848382E092
:1013B00090E0A0E0B0E0808F918FA28FB38FDF012B
:1013C0005C96CF01C0961D921D928A179B07D9F794
:1013D00015861782168288E592E0938782871486A5
:1013E00010AA11AA12AA13AA148A158A168A178A91
:1013F00080E092E095AB84AB97AB86AB86E292E05F
:10140000918B808B91AF80AF84E690E0938B828B41
:1014100081E082AF13AE17861686F0931602E09332
:1014200015020895CF93DF93CDB7DEB7EA970FB6D5
:10143000F894DEBF0FBECDBF789484B5826084BDC2
:1014400084B5816084BD85B5826085BD85B58160C8
:1014500085BD80916E00816080936E001092810046
:101460008091810082608093810080918100816001
:1014700080938100809180008160809380008091C2
:10148000B10084608093B1008091B000816080934E
:10149000B00080917A00846080937A0080917A0015
:1014A000826080937A0080917A00816080937A00D4
:1014B00080917A00806880937A001092C100E09158
:1014C0008501F091860182E08083E0918101F091B5
:1014D00082011082E0918301F09184018FEC80837E
:1014E00010928D01E0918901F0918A0186E080835C
:1014F000E0918701F0918801808180618083E09193
:101500008701F0918801808188608083E091870164
:10151000F0918801808180688083E0918701F0915B
:10152000880180818F7D8083E0911502F091160201
:10153000118210828DE090E093838283F89488E09A
:1015400092E0918B808B91AF80AF789461E086E0E0
:101550000E944C0480912C02E0912402F09125021B
:101560009081892B808380912B02E0912202F0915F
:1015700023029081892B808380912A02E0912002AE
:10158000F09121029081892B808380912E02E0913D
:101590002802F09129029081892B808380912D026D
:1015A000E0912602F0912702908180958923808323
:1015B0006AE070E080E090E00E94BD0480912D021E
:1015C000E0912602F09127029081892B808360E0D0
:1015D00081E20E94D80260E086EC0E94D80260E0BE
:1015E00086E00E94D80260E083E10E94D80260E0B9
:1015F00080E20E94D80260E080E40E94D80260E0AD
:1016000080E80E94D80208EF11E061E080E00E94CB
:10161000D80201501109C9F760E08CE00E94D8029D
:1016200010923202109231021092380286E490E059
:1016300090933A028093390260E081E20E94D802DE
:1016400060E08AEB0E94D80260E080E20E94D8024B
:101650008AE390E090933A028093390282EA92E022
:101660000E94200370E060E088E191E00E94FC04A9
:101670006FE070E083E291E00E94FC048CE790E070
:101680000E94200380913802811109C080E3898380
:101690001A8269E170E0CE0101960E94FC04F12CEF
:1016A000E12CD12CC12C809114028C151D0461F108
:1016B0005CF100911502109116020E0D1F1DD8014C
:1016C00012968D919C9197FD07C00E94B90260E02F
:1016D000F80182810E944C04D80114968D919C914E
:1016E00097FD0BC00E94B902F8011481812F0E945E
:1016F000B90260E0812F0E944C04FFEFCF1ADF0A8D
:101700002CE3E20EF11CCFCF0E9498046053784F77
:101710008F4F9F4F609317027093180280931902A6
:1017200090931A0210921B02109280001092820075
:101730008CE0809381008CE790E090938900809307
:10174000880082E080936F0078948DE291E00E949F
:10175000EF0481E591E00E94EF049AE0492E512CBC
:10176000612C712C7E0132E2E30EF11C80E3382EF5
:10177000E0911502F0911602F8948585158678940B
:10178000882309F488C0E0911502F0911602868042
:101790009780909274018092730180913802811138
:1017A00011C060E080E40E94D80260E080E80E94FE
:1017B000D80208EF11E061E080E00E94D8020150F9
:1017C0001109C9F782EA92E00E94200370E060E00C
:1017D00088E191E00E94FC046FE070E083E291E018
:1017E0000E94FC048CE790E00E94200310913802D4
:1017F000111112C0092C000CAA08BB088114910415
:10180000A104B10409F05AC039821A8269E170E07A
:10181000CE0101960E94FC0484E591E00E94EF0451
:1018200081E591E00E94EF0483E691E00E94EF04DD
:101830008090730190907401092C000CAA08BB08D9
:10184000B7FE90C06DE285E791E00E94DF0322279A
:101850003327A901281939094A095B0919A28E0100
:101860000F5D1F4FCA01B901A30192010E94F00C44
:10187000605DF80162938F01211531054105510525
:1018800089F70115110519F0C8010E94EF0481E5DF
:1018900091E00E94EF0464E170E080E090E00E943B
:1018A000BD04E0E0F0E0EF2B09F462CF0E94A90351
:1018B000882309F45DCF0E94000058CFB7FE09C00D
:1018C000B094A09490948094811C911CA11CB11C94
:1018D00011E06701C6018E199F0981149104A104CA
:1018E000B104D1F0C501B401A30192010E94120D0F
:1018F00020E3260FD6012D936D01A5019401261B2F
:10190000370B480B590BCA01B901A30192010E9480
:10191000120D49015A01DECFF701E80FF91F1082BD
:10192000112311F02DE22983E12FF0E09F01280F10
:10193000391F8E0D9F1D41E050E04C0F5D1FE40FDD
:10194000F51FE816F90629F0DC014E91CD0141930F
:10195000F8CFE1E0F0E0EC0FFD1F2E0F3F1FD901A3
:101960001C9254CFA501940119A28E010F5D1F4F47
:10197000CA01B901A30192010E94F00C605DD80177
:101980006E938D01211531054105510589F779CFF8
:10199000AA1BBB1B51E107C0AA1FBB1FA617B70795
:1019A00010F0A61BB70B881F991F5A95A9F78095B1
:1019B0009095BC01CD01089597FB072E16F4009475
:1019C00007D077FD09D00E94C80C07FC05D03EF473
:1019D000909581959F4F0895709561957F4F0895DB
:1019E000A1E21A2EAA1BBB1BFD010DC0AA1FBB1F23
:1019F000EE1FFF1FA217B307E407F50720F0A21B95
:101A0000B30BE40BF50B661F771F881F991F1A9401
:101A100069F760957095809590959B01AC01BD012B
:101A2000CF010895052E97FB1EF400940E94290D06
:101A300057FD07D00E94F00C07FC03D04EF40C9425
:101A4000290D50954095309521953F4F4F4F5F4F51
:101A5000089590958095709561957F4F8F4F9F4F1A
:101A60000895EE0FFF1F0590F491E02D09940F9358
:101A70001F93CF93DF938230910510F482E090E0C2
:101A8000E0913D02F0913E0230E020E0B0E0A0E0C5
:101A9000309799F42115310509F44AC0281B390BF8
:101AA00024303105D8F58A819B816115710589F152
:101AB000FB0193838283FE0111C040815181028129
:101AC000138148175907E0F04817590799F4109700
:101AD00061F012960C93129713961C933296CF01D5
:101AE000DF91CF911F910F91089500933D021093C4
:101AF0003E02F4CF2115310551F04217530738F05B
:101B0000A901DB019A01BD01DF01F801C1CFEF019D
:101B1000F9CF90933E0280933D02CDCFFE01E20FBC
:101B2000F31F819391932250310939832883D7CFB2
:101B300020913B0230913C02232B41F42091020181
:101B40003091030130933C0220933B02209100012D
:101B5000309101012115310541F42DB73EB7409177
:101B6000040150910501241B350BE0913B02F091DB
:101B70003C02E217F307A0F42E1B3F0B281739078E
:101B800078F0AC014E5F5F4F2417350748F04E0FD9
:101B90005F1F50933C0240933B02819391939FCFF0
:101BA000F0E0E0E09CCFCF93DF930097E9F0FC01F9
:101BB000329713821282A0913D02B0913E02ED0154
:101BC00030E020E01097A1F420813181820F931F33
:101BD00020913B0230913C022817390709F061C07F
:101BE000F0933C02E0933B02DF91CF910895EA012C
:101BF000CE17DF07E8F54A815B819E01411551054B
:101C0000B1F7E901FB83EA8349915991C40FD51FCC
:101C1000EC17FD0761F4808191810296840F951F76
:101C2000E90199838883828193819B838A83F0E091
:101C3000E0E012968D919C9113970097B9F52D9144
:101C40003C911197CD010296820F931F20913B0288
:101C500030913C022817390739F6309751F5109228
:101C60003E0210923D02B0933C02A0933B02BCCFD7
:101C7000D383C28340815181840F951FC817D90730
:101C800061F44E5F5F4F88819981480F591F5183DE
:101C900040838A819B81938382832115310509F0DA
:101CA000B0CFF0933E02E0933D029ECFFD01DC01F8
:0C1CB000C0CF13821282D7CFF894FFCF70
:101CBC0000003F02800000000000DF033F036C03C4
:101CCC002C049D037B038F0344616B696B6164611E
:101CDC006B69004E61627A696E697A3A0050756C74
:101CEC0073652073656E73C3B672C3BC206F626A72
:101CFC006573696E6920796172617474C4B16B2EFD
:101D0C00000D0A004E6162C4B17A20617474C4B1D2
:0A1D1C002E200042504D3A20000036
:00000001FF
